0210318SDT1OPETP0000010006000400000004                                                                                                                                                                                                                                                                                                                                                                                                              0001
1                                 ESPOLIO DE IZABEL MORAES DE ALMEIDA                                                       TJ 01514993419270218270218   0000000071045100000000710451                      0MARIA LUIZA AZEVEDO DE OLIVEIRA              CPF   29666856700           R COMANDANTE FABIO MAGALHAES 115             21360020RIO DE JANEIRO      RJ010017910ESPOLIO DE IZABEL MORAES DE ALMEIDA          00000179770071632ECLG47160FYXE0002
1                                 VINICIUS TEIXEIRA CASTELANO                                                               TJ 00384001220281116281116   0000000033533200000000335332                      0ANTONIO FERNANDO BARBOSA DE OLIVEIRA         CPF   69889163772           AV JOAO CARLOS MACHADO 99 BL 2 AP 203                RIO DE JANEIRO      RJ010017911VINICIUS TEIXEIRA CASTELANO                  00000144070071633ECLG47161JKDE0003
1                                 JARBAS SANTOS COELHO                                                                      TJ 00153053620280218280218   0000000406187700000004061877                      0FRANCISCO PRATES VOLPE                       CPF   46742140763           AV BRAS DE PINA 1076 AP 202                  21210675RIO DE JANEIRO      RJ010017912JARBAS SANTOS COELHO                         00000198880071640ECLG47168MRSE0004
1                                                                                                                           TJ 00153053620280218280218   0000000406187700000004061877                      0MARILENE JARDIM VOLPE                        CPF   07148782783                                                                RIO DE JANEIRO      RJ010017912JARBAS SANTOS COELHO                         00000000000071640             0005
921031800030000000000009169537                                                                                                                                                                                                                                                                                                                                                                                                                      0006
